:1020000000800020095C0000D15B0000F15B000053
:1020100000000000000000000000000000000000C0
:10202000000000000000000000000000F15B000064
:102030000000000000000000F15B00005D5C00009B
:10204000F15B0000F15B0000F15B0000C93C0000A7
:10205000955B0000F15B000049680000F55B000043
:10206000F15B0000953F0000F15B0000F15B0000B8
:10207000F15B0000F15B0000A53F0000F15B000098
:10208000F15B0000F15B0000F15B0000F15B000020
:1020900000000000F15B0000F15B0000F15B00005C
:1020A000F15B0000F15B0000F15B0000F15B000000
:1020B0000000000010B5064C2378002B07D1054B1B
:1020C000002B02D0044800E000BF0123237010BDA4
:1020D000800200200000000094D60000044B10B5E0
:1020E000002B03D00349044800E000BF10BDC046E8
:1020F000000000008402002094D600000122014B61
:102100001A707047D9020020F0B5002408270B4B45
:10211000025D53403A0001265D101E40ABB2002E16
:1021200002D0074B5D40ABB2013AD2B2002AF2D1E5
:102130000134E2B28A42EBD31800F0BDFFFF000089
:1021400001A0FFFF10B50121072004F01BF8C823F0
:10215000DB00013BFDD10021072004F013F805202E
:1021600003F0C0FD10BD000070B5094DE12428004A
:1021700001F06EFE0600280001F060FE3C23240101
:10218000584374432418280001F04EFE001970BD16
:10219000D802002070B50C4C642301225B21200082
:1021A00001F020FA051E0CD00121200001F070F989
:1021B0000649200000F032FF4E212000494201F084
:1021C0000CFB280070BDC046B0020020D0C7000044
:1021D000002313B5084C009309221021200000F0C1
:1021E00085FC064B0648236001F06AFD054A08217C
:1021F000054800F0B7FA13BDB0020020B4CA0000D1
:10220000D802002030EF0000A0020020E12170B5CC
:10221000364C8EB04902200002F018FAE121344811
:10222000490203F0C9F9334803F05CFD01210420A1
:1022300003F078FF0021042003F0A4FF0121072010
:1022400003F070FF0021072003F09CFFFFF77AFFE7
:10225000FFF7A0FF002803D12749200001F032FF3B
:10226000264A274901A808F04DFB01A9200001F0EA
:1022700033FF244E300000F0B1FB002830D022495B
:10228000200001F00EFF300000F0E6FA00251F4BA1
:102290001022595D200001F082FF0135202120002D
:1022A00001F003FF082DF2D1200001F003FF300000
:1022B00000F080FB1649200001F00EFF154800F0E9
:1022C00035FC154D0021280001F0FCFD28001349C4
:1022D00001F02AFD1249200001F0F4FE0EB070BD9D
:1022E0001049200001F0F8FEE4E7C0464C09002048
:1022F000380600208813000088C9000093030000FE
:10230000B1C90000A0020020CCC90000DA02002000
:1023100022CA0000B0020020D8020020FD200000E8
:1023200051CA0000F3C900007FB52A4B02AE0293E8
:1023300080235B00B38006213000FFF7E5FEB0711B
:10234000000AF071244D280003F05AFA041E03D04D
:10235000280003F03DFBF5E731000822280001F0DA
:1023600073FE280003F03FFA03F086FC0600072CFA
:1023700015D003F081FC194B801B984203D9012032
:10238000404204B070BD280003F03AFA0028EED0B5
:10239000280003F01DFB6B46E0540134E7E70521FC
:1023A0006846FFF7B1FE6B469A795B7912021343D8
:1023B0009842E4D16B461B78012BE0D16B465B78E9
:1023C000032BDCD16B461879DA780002104340BA4F
:1023D00080B2D6E70103000138060020E7030000C1
:1023E000F0B5A9B0FFF7AEFEFFF7D4FE06900028C7
:1023F00003D1BF49BF4801F065FEBF4C2378002BD5
:1024000000D1D2E0FFF790FF041E27DC03F034FC7C
:102410000124070096206442400003F063FC25007D
:10242000FFF782FF061E00DCC6E0002D00DCD3E0D3
:10243000451B0A35142D00D9CEE0AE4CAF49200023
:1024400001F02BFE03F018FC0A22C11B200001F052
:102450009AFE2000AA4901F035FE3400132003F053
:10246000F5FD05F0DFFC011C04F00AFEA54905F0AE
:1024700079F9A54905F076F904F0CCFD83B205930E
:10248000631C43D0FFF770FEA04B0490186800282F
:1024900037DB9F4B1D68049B5D1B01D59D4BED18E1
:1024A0002C226B1EFF3293422BD8001B05F070FCD0
:1024B000994905F057F90790280005F069FC011CBF
:1024C000079804F077FFFC21890504F099FD934FEC
:1024D000934B3E78002800D1A3E00021914A11706F
:1024E0001A78012A00D9FEE001321A708E4208D112
:1024F000D3B2012B05D901238B493B707D4801F0F4
:10250000E1FD824B049A1C60814B1A60834D2E784A
:10251000002E05D13100042003F034FE764B1E70EE
:102520002B780022611C00D18BE00193059B029265
:1025300000937E4A2300802108A808F0B1F9069B89
:102540007B4E002B00D185E06A4C7A49200001F0D7
:10255000A4FD08A9200001F0BFFD08A808F03EFA7C
:102560000022C3B20092022108AA300000F0A0FCB1
:102570002C7863425C4196236442DB001C4003F0EC
:102580007BFB07002D34FF3403F076FBC01BA04219
:1025900060D2300000F056FF0028F5D00D23012254
:1025A0006549300001F01AFBEEE70121042003F039
:1025B000E9FD0123237029E703005A1E93415B4282
:1025C0001C4003F059FB5D4BC01B984206D8FA2013
:1025D00003F088FB350023E73400F2E7E1234B4AA0
:1025E0005B001268434D9A420BD8631C09D05449D2
:1025F000280001F052FD0A222100280001F0B9FD57
:102600002CE75049280001F048FD210001240A224E
:10261000280001F08FFD4C49280001F053FD644271
:102620001CE71870002E00D16BE73E4A1378013387
:10263000DBB21370092B00D863E738701070434980
:102640005CE701920093424A059B802108A808F0AC
:1026500027F974E7300000F069FA2B783C26002B4C
:1026600000D0373EFFF780FD2A49801904F054FC62
:1026700000220C00374B20001A703C2104F04CFC67
:10268000CFB2E1212000090104F046FC08003C2102
:1026900004F05CFBE121C3B209012000049304F0C3
:1026A00055FB2D4DC1B23B00049A280001F07EFB82
:1026B0000321280001F016FBFFF756FD241A01D56F
:1026C000144BE418002C09DDA64207DB234801F077
:1026D000EBFA280001F01AFB29B0F0BD20490548AB
:1026E00001F0F0FCF5E7002E00D00AE703E7C04652
:1026F000E1C700004C0900209D0200200BC800002B
:1027000020C800004C6B533B00007A4404000020BA
:102710000000002080510100000070429F02002054
:102720009E0200209C0200209DC80000DCC8000022
:10273000B00200204DC90000A00200200F270000B9
:1027400024C8000062C8000085C80000BDC80000A1
:1027500014C90000D9020020D8020020350300204F
:1027600052C90000034B017083600023437303735D
:102770004280704700093D0010B50400C2688168BE
:10278000034803F0C9FE2078002103F0FBFC10BDD4
:10279000C80F002010B50078012103F0F3FC0248B7
:1027A00003F0D6FE10BDC046C80F002070B505006E
:1027B000FFF7E2FF0A4E9F21300003F0DDFE3000FC
:1027C000002103F0D9FE0002002184B2300003F0A2
:1027D000D3FE0443A4B22800FFF7DCFF200070BD45
:1027E000C80F002070B50400FFF7C6FF074D052194
:1027F000280003F0C1FE0021280003F0BDFE050003
:102800002000FFF7C7FF280070BDC046C80F00209A
:1028100010B5FFF7E7FF0123184010BD70B50400A5
:102820000D00002A06D000220621FFF7F7FF200046
:10283000FFF7B0FFAB2D04D02000FFF7E9FF002821
:10284000FAD12000FFF798FF2900024803F094FE18
:1028500070BDC046C80F0020F8B500224B2107000C
:10286000FFF7DCFF0F4C0021200003F085FE002164
:10287000200003F081FE0021200003F07DFE0021F6
:10288000200003F079FE00250021200003F074FEF3
:10289000054EA8550135082DF6D13800FFF77AFF0F
:1028A0003000F8BDC80F0020DA020020F8B50C0097
:1028B0001700060001220221FFF7B0FF0B4D210C8B
:1028C0002800C9B203F058FE210A2800C9B203F05B
:1028D00053FEE1B2280003F04FFE3900280003F058
:1028E0004BFE3000FFF756FFF8BDC046C80F002072
:1028F000F0B585B0029280220C001D00CBB2002101
:102900005200D31A01909BB200910392002D30D057
:102910002F1C9D4200D91F1C012202210198FFF7A4
:102920007DFF154E210CC9B2300003F025FE210AAF
:10293000C9B2300003F020FE3000E1B203F01CFE0B
:102940000026BFB2029B009A0B489B18995D013686
:1029500003F012FEB3B29F42F4D80198FFF71AFFBA
:10296000009BED1BDB199BB20093E419ADB2039BF6
:10297000CCE705B0F0BDC046C80F002070B50C0014
:10298000060001225221FFF749FF094D210C2800C2
:10299000C9B203F0F1FD210A2800C9B203F0ECFD31
:1029A000E1B2280003F0E8FD3000FFF7F3FE70BD50
:1029B000C80F002010B504000022B921FFF72EFF38
:1029C0002000FFF7E7FE10BD10B504000022AB2188
:1029D000FFF724FF2000FFF7DDFE10BD70B50121D9
:1029E0000400007803F09EFB154E0025300003F034
:1029F00077FE092363723433A37220002572E572D7
:102A000025736573FFF7C6FE2000FFF7DDFF6388BF
:102A1000AB420DD1012220001100FFF7FFFE002183
:102A2000300003F0A9FD2000FFF7B4FE012070BDC7
:102A30002000FFF7BBFE63888342EBD02800F6E757
:102A4000C80F00207047007B704700000122054B33
:102A500010B51A70044B1B685B69002B00D09847B7
:102A600010BDC0462C0300203003002010B5040028
:102A7000C2698169006903F04FFD2079002103F0EC
:102A800081FB10BD10B504000121007903F07AFB31
:102A9000206903F05DFD10BD10B50368427B0C009A
:102AA000DB69002A15D08A1C09DB14290FDCC9B2A6
:102AB0000B2C07DCA11CC9B29847200010BD0224D2
:102AC0006442F7E704310F2CF5DDE11CF3E7142431
:102AD000FBE70D2900DD0D214AB2123201DA024A6C
:102AE00011784CB21231E6E762CA0000017101218F
:102AF00030B50A4C42710A4A08340460002411704F
:102B00001F22084D43738561039B074D4461286074
:102B100044770477C4720273036130BD64CA000055
:102B20002603002000093D003003002010B5036893
:102B300000215B6A984710BD036810B5DB680C0084
:102B4000984700280BD0064B1B88A34202D00020D8
:102B5000844204D1034B1878431E9841C0B210BD83
:102B600028030020E3020020F0B505000E00002439
:102B700087B003930CAB1B78029204930DAB1B78C8
:102B8000059301222B6800925F68029A039B310033
:102B90002800B84703F070F8070003F06DF8059BB4
:102BA000C01B984207D231002800FFF7C5FF00285C
:102BB000F3D007B0F0BD0134049BE4B2A342E0D2ED
:102BC0000020F6E7036870B59B6A04000D00984783
:102BD0007F212069294003F0CFFC0021206903F008
:102BE000CBFC050023682000DB6A9847280070BDF5
:102BF00070B507210600FFF7E5FF0821040030004B
:102C0000FFF7E0FF092105003000FFF7DBFF240498
:102C10002D022018401906F0B1FE0022024B06F0EA
:102C200067F804F00FFA70BD80844E40F0B585B0AF
:102C30001E000AAB1B780F0002930BAB1B780192AE
:102C40000393036801215B6A040098472721200051
:102C5000FFF7B8FF0306F9D5351C3D2E00D93D25F9
:102C6000039BEDB28026002B03D1029E731E9E4172
:102C7000B601FF2F03D90C22BB1113401E43238939
:102C8000FF2B02D99B059B0F1E43236820009B6AE4
:102C900098478021206903F06FFCE91CC9B22069C4
:102CA00003F06AFCF9B2206903F066FC217A20691E
:102CB00003F062FC3100206903F05EFC019E75198F
:102CC000AE4205D03178206903F056FC0136F7E7B3
:102CD00023682000DB6A9847236804215B6A200090
:102CE0009847082528212000FFF76CFF2842F9D0DB
:102CF000236801215B6A2000984705B0F0BD036896
:102D000070B59B6A160004000D0098478021206969
:102D1000294303F031FC3100206903F02DFC2368C6
:102D20002000DB6A984770BD70B5194B04001E780F
:102D30000D00042E03D1036803215B6A9847280025
:102D400006F01CFE134B002205F0C8FB04F07AF9D4
:102D50000500020CD2B207212000FFF7D0FF2A0A9B
:102D6000D2B208212000FFF7CAFFEAB209212000F1
:102D7000FFF7C5FF032E04D1236802215B6A200000
:102D80009847236831005B6A2000984770BDC046B1
:102D90002603002080844E4070B52E4E0400337808
:102DA0000D008B4220D004291ED80800012103F019
:102DB00039FF433C2F1C03002000FFF703FF1C23B7
:102DC0000C2298430243D2B201212000FFF797FF63
:102DD000637B002B04D001212368DB6B2000984724
:102DE0003378002B2ED0357070BD2000FFF7EAFE3F
:102DF0001C23102298430243D2B201212000FFF786
:102E00007EFF637B002BEBD023680021DB6BE5E7C3
:102E10002000FFF7D7FE1C23082298430243D2B2BA
:102E200001212000FFF76BFFDAE72000FFF7CAFE61
:102E30001C2304229843F1E72000FFF7C3FEE3229E
:102E40000240EDE727212000FFF7BCFE0306C7D5AF
:102E5000C9E7C0462603002070B5437B0500002B60
:102E60001DD0172903D917210173083114E001730C
:102E70000F290ED840261031CCB22B680121DB6B14
:102E8000280098472200280032431121FFF737FF1E
:102E900070BD1329E9D80A31CCB26026EDE70B1CCE
:102EA0001F2900D91F23DCB22B738026EAE700001C
:102EB000F0B585B002930AAB1B780D003D2103935A
:102EC00004001600FFF77EFE04220243D2B23D2129
:102ED0002000FFF714FF02F0CFFE07002368200058
:102EE0001B68984700280AD102F0C6FE0A4BC01B97
:102EF000984204D823682000DB689847EEE7002258
:102F00000192039A236800925F6B3200029B2900B2
:102F10002000B84705B0F0BDE7030000F0B587B06A
:102F2000059200221C4B1D4E1A701D4B049100226D
:102F30009B5E3D21039304003588FFF743FE042286
:102F40000243D2B23D212000FFF7D9FE02F094FEE9
:102F50000700236820001B68984700280AD102F068
:102F60008BFE104BC01B984204D823682000DB68FE
:102F70009847EEE7012235800192002223680092F3
:102F80005E6B049A059B29002000B0476A46044BFB
:102F900092891A8007B0F0BDE402002028030020C7
:102FA00024030020E70300000023154A70B51370C6
:102FB000144A28211380144A04001380134A04255C
:102FC0001370134A1370134A1370134A1380FFF7D8
:102FD000F9FD284209D03D212000FFF7F3FD05430C
:102FE000EAB23D212000FFF78AFE40222000252181
:102FF000FFF785FE236803215B6A2000984770BDB8
:1030000027030020280300202A030020E2020020DA
:10301000E4020020E30200202403002070B50D002C
:10302000036801215B6A04002E009847002D19D027
:1030300000262B78B34215D0236820009B6A98475E
:103040002E00BE21206903F097FA103629782069F6
:10305000013503F091FAB542F8D123682000DB6A0C
:10306000984701263D212000FFF7ACFD0123020017
:103070009A433243D2B23D212000FFF740FE70BD9B
:10308000F0B58FB001921E00437904000D008371EA
:10309000FF2B02D100200FB0F0BD02AB9F1C2C22F1
:1030A0000021380006F058FD6A4B02AA1380022363
:1030B0009370694B0393694B049307231373013394
:1030C000937301331374664B5382664B9382664B42
:1030D000D382664B1383664B5383664B9383664B55
:1030E000D383130030220133DA77644B02AA53846E
:1030F000634B9384634BD384634B1385634B53853A
:10310000FF220DAB1A704E231F2D06D01E332B2D20
:1031100003D06D33562D00D00B3302AA5373C02356
:103120001F2D06D0463B2B2D03D00023562D00D05B
:10313000C03302AAD373E1232B2D00D0002302AAAF
:103140005374FE772079012103F01CF820790121C6
:1031500002F0E8FF2369002B01D14D4B2361206968
:1031600003F0BEFA12220023627668322376A2763A
:10317000E3762377637702F07FFD2F270500390080
:103180002000AA22FFF7BBFD39002000FFF71AFD3F
:10319000AA2804D002F070FD401B3128EFD902F0BC
:1031A0006BFD451B312D00D974E702F065FD2F271B
:1031B0000500390020005522FFF7A1FD390020004D
:1031C000FFF700FD552804D002F056FD401B3128C2
:1031D000EFD902F051FD451B312D00D95AE70025EA
:1031E0006B0002AAD15CFF2907D09B185A782000F7
:1031F0000135FFF784FDEDB2F2E700212000FFF773
:103200000DFF2368617B5B692000984723680121DB
:103210005B6A2000984702F02FFD0500272120005F
:10322000FFF7D0FC030604D402F026FD401B312832
:10323000F4D902F021FD401B312800D92AE7A079FA
:103240000422144902F0EEFB6B469B88A672238190
:10325000012020E7010400000302044005030633B7
:103260001942000025400000260700002810000039
:1032700029DCFFFF2E88FFFF2F2D00003790FFFF76
:10328000384200003C8FFFFF3D1000006F3000000F
:10329000C80F00204D2A000070B5040000290AD094
:1032A00001222321FFF72BFD022523212000FFF718
:1032B00089FC2842F9D024212000FFF783FC4042FA
:1032C00000B2401070BD000010B50B4B04001B781D
:1032D000032B01D0002010BD084B19780029F9D12B
:1032E000FFF7DAFF5A30F5DA236820005B6A012124
:1032F00098470120EFE7C04626030020E2020020A5
:10330000F7B5474B04001B78032B00D081E0282140
:10331000FFF758FC430700D47BE0236801215B6A78
:1033200020009847236820009B6A98470021206965
:1033300003F022F90021206903F01EF9394D031C26
:10334000422800D94223002120692B7003F014F990
:10335000354F00213880206903F00EF9334E0021EB
:103360003080206903F008F901008301C0203A8809
:103370008000034013430A02024030883B8002432E
:103380003280E27A002A04D122899A4201D0002BAD
:1033900002D12B78022B0AD800232B70236820003F
:1033A000DB6A9847236820009B6B9847F7BD204F46
:1033B000033B226808003B707F2398431D4B002588
:1033C000187040231C480B400370237B200001939E
:1033D000136B98473B78194EAB4207D900212069FF
:1033E00003F0CAF870550135EDB2F3E70022F2544C
:1033F00023682000DB6A9847236803215B6A20006A
:103400009847217B019B994203D023682000DB6908
:10341000984700212000FFF73FFF094B1880C5E7C0
:1034200026030020E20200202A03002028030020B7
:1034300027030020E3020020E4020020E502002030
:10344000240300200F4B10B51A780400002A03D083
:1034500000221A70FFF754FF0B4B1B78032B0BD184
:1034600000200A4B1B78834205D0236820005B6A4A
:1034700001219847012010BD236820009B6B9847CD
:103480000020F8E72C03002026030020E2020020A1
:1034900010B50F2204004173002900D10B32200027
:1034A0001321FFF72CFC2368217BDB692000984760
:1034B00010BD70B5437B04000D00002B13D0037BBF
:1034C000132B10D95522002900D008325A21200090
:1034D000FFF715FC7C22002D00D10C3A5C21200066
:1034E000FFF70DFC70BD00255522EFE7F0B5040095
:1034F0000D00002789B005930EAB1B78049206934C
:103500000FAB1B7807930122236800925E68049A30
:10351000059B29002000B04702F0AEFB637B0390BF
:103520001726002B00D1083602F0A6FB039BC01A19
:10353000079B984207D229002000FFF7FDFA0028D8
:10354000F2D009B0F0BD217BB14207D2E31CDB7F92
:103550002000C9182368C9B2DB6998470137069B68
:10356000FFB2BB42CFD20020EBE70000202370B5B2
:10357000194A19401278194B04001970002A22D0F8
:103580001B78002B1FD0164D2B78002B1BD0002151
:10359000006902F0F1FF2B784042013B2B702022A2
:1035A000A35E00B2A084002B0DD0617B17220029FE
:1035B00000D10832984207DA237B934203D2E21CFF
:1035C000D27F9B18237370BD9842FCDD237B002BB8
:1035D000F9D0013BF6E7C046E302002034030020A7
:1035E0002703002070B50024044D04842C700125AD
:1035F0008484C41CE577FFF743FD70BD34030020CD
:10360000F0B585B01D000AAB1B78019202930BAB9D
:103610001B780E0000930CAB1F780DAB00229B5E55
:1036200001210393036804005B6A98472721200067
:10363000FFF7C8FA0306F9D50023009A9A4200D092
:103640003B005B19DBB21D1C3D2B00D93D252368D7
:1036500020009B6A9847EDB28021206902F08CFF20
:10366000E91CC9B2206902F087FFF1B2206902F0BB
:1036700083FF217A206902F07FFF0021FF2E02D90B
:10368000B6110C3131402389FF2B02D99B059B0FCA
:103690001943009B2069002B20D03B0080265A1E36
:1036A000934176425B0131431943C9B202F064FF92
:1036B000002F09D0039B2069DA1799185140C9B22D
:1036C00002F05AFF013DEDB2019E7519B54212D0CC
:1036D0003178206902F050FF0136F7E7029B002B9A
:1036E00006D02022A35E4026002B00D02036314396
:1036F00002F042FFE8E723682000DB6A984723686E
:1037000004215B6A20009847082528212000FFF744
:1037100059FA2842F9D0236801215B6A20009847B2
:1037200005B0F0BDF0B589B0079200221F4B204EC6
:103730001A70204B06910027DF5F1F4B3D211B783D
:1037400004005A1E9341DBB204933588FFF73AFA1E
:1037500004220243D2B23D212000FFF7D0FA02F04A
:103760008BFA0590236820001B68984700280BD12E
:1037700002F082FA059BC01A104B984204D82368C5
:103780002000DB689847EDE7049B35800293012316
:103790000193002303970093069A079B29002000BA
:1037A000FFF72EFF034B1F8009B0F0BDE40200209D
:1037B000280300202403002034030020E703000036
:1037C0007FB508AC257809AC2678002401960095D1
:1037D00003940294FFF714FF7FBD0184704700003B
:1037E000002210B5024B1A70FFF7DEFB10BDC04679
:1037F00034030020F8B505000F00002A15D000247E
:103800000800FFF7E1F826003800FEF7CFFF114A65
:10381000431E9BB2934210D8002C01D0B0420CD171
:103820000134E4B206000A2CEED12B6828001B6993
:1038300006220949984701200AE02B680F221B69DC
:103840000649280098470649064800F03BFC00203E
:10385000F8BDC046FDFF000016CB0000F4CA000012
:1038600004CB00004C090020F7B5040030260F27D8
:1038700043180193019B0E4DA34214D023781B11D2
:103880003343D9B2392B00DD0731280000F00DFC9D
:10389000217839403143392900D90731280000F017
:1038A00004FC0134E6E7280000F004FCF7BDC04644
:1038B0004C090020F0B517008DB0029312AB1B78B5
:1038C00007910600002110000593FFF757F8072322
:1038D000874A00213800FFF70BF83A220A21380006
:1038E000FEF7E4FF02F0C8F901210690059802F006
:1038F00019FC0B2301930023039333683000DB682A
:103900009847002800D18AE07A4B079A1B88934297
:1039100000D084E0784B01211B780598009302F0D9
:1039200031FC009B032B76D9744B1A78462A72D14E
:103930005A784C2A6FD19A78582A6CD1DA783A2A78
:1039400056D1009A062A53D9042200240493049BDA
:10395000D5B2995C30235B429C468C446346681E1A
:10396000C0B2092B08D80A235C43303C6418A4B2C7
:103970000132082AEBD105E03A29F9D1042D00D112
:1039800092E00500029B002B10D05D495D4800F0DD
:1039900084FB0A2200995B4800F001FC5A4959480F
:1039A00000F07BFB00995548FFF75EFF6B1C534A04
:1039B000DBB2D35C3A2B77D102F05EF9039B069021
:1039C0009C4235D0013BA34212D122004F4908A8A6
:1039D00006F098FF029B0400002B03D008A9494879
:1039E00000F07AFB3368E2B21B6908A930009847FF
:1039F000424BDA783F2A0ED1009A042A35D1033A95
:103A000039003000FFF7F6FE029B002B03D040493F
:103A10003C4800F057FB0021059802F0B3FB02F090
:103A20002BF9069BC01A3B4B984200D865E73BE058
:103A3000631C9BB202350393EDB2009AEBB29A423B
:103A4000C3D9019B0199013304932C4B38005A5D73
:103A5000FEF72CFF049B5B0403D104993800FEF7AA
:103A60008DFF049B01350193E7E7009A072AD2D125
:103A70001A79452ACFD15A794F2ACCD19B79462B36
:103A8000C9D1F822019B92020A3B93420ED9029BB4
:103A9000002B03D020491B4800F014FB3368102290
:103AA0001B691E493000984700201FE000223900A2
:103AB0003000FFF79FFE029B002B03D018491148EE
:103AC00000F000FB019C07210B3C220CD2B2380015
:103AD000FEF7ECFE220AD2B208213800FEF7E6FE1D
:103AE0003800E2B20921FEF7E1FE01200DB0F0BD81
:103AF0006CCB00002803002027030020E5020020F3
:103B000074CB00004C0900207CCB000081CB00006E
:103B10008BCB0000B80B000099CB0000AFCB0000AE
:103B200016CB0000F0B5170085B01E000AAB1B785D
:103B300002910122390004000393FFF75BFE051E8A
:103B40003CD0002E11D01F4D1F49280000F0BAFABA
:103B50001E49280000F0A1FA2000FFF749F81C4B8D
:103B60000A22C118280000F01EFB2000FFF740F8D1
:103B7000174BC1182000FFF7D7F8039B3A000093BA
:103B8000029933002000FFF795FE0500002E0DD0AE
:103B90000C4E1049300000F080FA2000FFF728F8A2
:103BA0000D4B0A22C118300000F0FDFA2000FFF78B
:103BB0001FF8094BC1182000FFF7B6F8280005B020
:103BC000F0BDC0464C090020C0CB0000D4CB0000A3
:103BD00040420F00D2CB0000C0BDF0FF73B514000F
:103BE000254A0E001578032D20D9244A117846293C
:103BF0001CD151784C2919D19178582916D1D178F6
:103C00003F2913D11E490988072D10D11579452D5B
:103C10000DD155794F2D0AD19279462A07D100222C
:103C2000036800925C68174A0623A04773BD00939F
:103C300032002300FFF776FF002811D0002C03D0BC
:103C40001149124800F029FA114B124A1A60BFF3C9
:103C50004F8F114B114ADA60BFF34F8FC046FDE71B
:103C6000002CE3D0094C0E49200000F01AFA0D494F
:103C7000200000F027FAD9E727030020E502002002
:103C80002803002016CB00001DCB00004C090020AB
:103C9000FC7F0020AF07A5F100ED00E00400FA056D
:103CA0003ECB000067CB00000423044A11690B439C
:103CB0001361BFF34F8F30BF7047C04600ED00E087
:103CC0000023037070470000044B10B51B68002BE5
:103CD00000D098470122024B1A7210BD3803002011
:103CE00000140040037810B5002B0BD00724064BBE
:103CF00021401A7F0800A2431100014319779A7AE4
:103D0000D209FCD110BDC046001400400378002B3E
:103D100007D00721034B1A7F8A431A779A7AD20970
:103D2000FCD1704700140040014B19607047C04639
:103D300038030020037810B5002B0BD03F24064B2E
:103D400021409A690800A2431100014399619A7ABF
:103D5000D209FCD110BDC046001400400378002BEE
:103D60000BD03F20054B08409A690549800111405E
:103D7000014399619A7AD209FCD17047001400403E
:103D80003FF0FFFF0378002B0BD01F20054B0840AE
:103D90009A69054900031140014399619A7AD20951
:103DA000FCD1704700140040FF0FFEFF70B51600F5
:103DB000027804000D00002A0AD01900FFF7BAFFAC
:103DC00031002000FFF7CAFF29002000FFF7DAFFCB
:103DD00070BD0000094B0A4A9A605A7852B2002A14
:103DE000FBDB084A5A605A7852B2002AFBDB064ACB
:103DF0005A805A78D209FCD17047C046000C004066
:103E00000204000002051100044200000378002BA8
:103E100005D0034B034A5A809A7AD209FCD17047E5
:103E2000001400400080FFFF10B5FFF7EFFF024BCA
:103E300018698006800E10BD0014004010B5FFF711
:103E4000E5FF024B18690005800E10BD001400400C
:103E500010B5FFF7DBFF024B1869C003C00E10BDA1
:103E6000001400400221044B1A888A431A809A7A6F
:103E7000D209FCD17047C046001400400222044B16
:103E800019880A431A809A7AD209FCD17047C04631
:103E9000001400400122044B19880A431A809A7AC0
:103EA000D209FCD17047C046001400400121044BE8
:103EB0001A888A431A809A7AD209FCD17047C04680
:103EC000001400402023F7B500262A4A0F0091690C
:103ED00005000B439361284B284A294C9A82B7422C
:103EE0000BD1284B3E001A7870231A4205D0238844
:103EF0001B0702D50126236901932800FFF76AFFFB
:103F00002800FFF7AFFF2800FFF7C4FF63881E4AB1
:103F1000134063801D4B2380A37ADB09FCD1C021B1
:103F20001B4A08331360890053581B021B0A535065
:103F30000123E27913430722E371237F934323771D
:103F4000A37ADB09FCD12800FFF798FF2800FFF7D0
:103F5000ADFF002F0BD1002E09D0019B002B06D006
:103F60002361A37ADB09FCD101332B70F7BD8423D5
:103F7000DB03F5E70004004000080040CE06000027
:103F80000014004038040040FFBFFFFF080A000093
:103F900000E100E010B5024801F04EFC10BDC04643
:103FA0003806002010B5024801F046FC10BDC0469E
:103FB0003C030020F7B501240326154F15493800AE
:103FC00000F0FBF81449154800F0F7F814491548BB
:103FD00000F0F3F81449154800F0EFF814491548BB
:103FE00000F0EBF8144D1549280000F0E6F8390010
:103FF0000096230001940022114801F0B1FB0096C5
:10400000290001941E231F220E4801F0A9FBF7BDD1
:104010003409002000080042000C0042380900204A
:10402000001000423C09002000140042400900201A
:10403000001800424409002048090020001C0042EA
:10404000380600203C030020F7B506000D000C00E8
:104050008B180193019B671B9C4207D03368217822
:104060001B683000984701340028F3D13800FEBDAA
:1040700070B5040008000D0006F0B0FC23680200D3
:1040800029005B682000984770BD10B50B1E02D058
:10409000FFF7EEFF0300180010BD10B5FFF7F5FFA6
:1040A00010BD10B5FFF7F1FF10BD10B503681B6818
:1040B000984710BD10B50249FFF7DAFF10BDC046A2
:1040C0006CD0000070B50400FFF7DFFF0500200092
:1040D000FFF7F0FF401970BD70B50400FFF7D5FF82
:1040E00005002000FFF7E6FF401970BDF0B58BB06A
:1040F0006B461500002205330600DA770800012D13
:1041000000D80A2509AC290002F01CFECAB213002F
:1041100037330700DBB2092902D813003033DBB292
:10412000013C2370002FEED121003000FFF7ADFFDE
:104130000BB0F0BDF8B506000C00151E04D10368E5
:10414000C9B21B689847F8BD0A2A0CD100290BDABE
:104150002D21FFF7AAFF614207002A003000FFF778
:10416000C5FF3818EFE7D2B221003000FFF7BEFFDD
:10417000E9E770B50500FFF7DDFF04002800FFF751
:1041800099FF201870BD10B5002A04D10368C9B288
:104190001B68984710BDD2B2FFF7A8FFFAE710B529
:1041A000FFF7F1FF10BD70B50500FFF7ECFF04004D
:1041B0002800FFF77FFF201870BD0160704794460C
:1041C000F0B59E1E721E96416246056892072F68E2
:1041D00036063A4332432A60072505AC2478006846
:1041E000A4012940214342680024022B00D05C0333
:1041F000114321434160F0BD30B5C0250368AD03D4
:104200001C6812052A402243C0240904A40221404C
:104210001143196003685A6814435C6030BD012380
:10422000026811680B43136003681A68D207FCD454
:10423000DA69D207F9D470470223026811680B4388
:1042400013600268D3699B07FCD4704703681A7E29
:10425000D20702D41A7E9207FCD570470022036869
:104260005A8370470368187E4007C00F7047036881
:10427000187EC0097047802302685B42117E0B43A1
:10428000137670470368588B8007C00F704702236E
:104290000268518B0B43538370470368187EC00735
:1042A000C00F70470368188DC0B2704703681A7E4C
:1042B000D207FCD589B20120198570470122036815
:1042C0009A757047012203681A75704701230268C6
:1042D00011680B43136003681A68D207FCD4DA69CB
:1042E000D207F9D470470223026811680B431360A8
:1042F0000268D3699B07FCD470470368DA699207A8
:10430000FCD402211A688A431A6070470268936AD3
:104310005B0A5B021943916203681A7E5207FCD55F
:10432000986AC0B27047000010B54900044802F016
:1043300083FC80B2002801D0013880B2C0B210BD29
:10434000006CDC0270B54B080C00012105680B40C5
:104350000C402E6824075B07234333432B60110076
:104360000468FFF7E1FF207370BD00000368104A86
:10437000934213D00F4A934212D00F4A934211D066
:104380000E4A934210D00E4A93420FD001200D4A9C
:104390004042934201D1063040B270470020FBE713
:1043A0000120F9E70220F7E70320F5E70420F3E70F
:1043B00000080042000C00420010004200140042BD
:1043C00000180042001C0042F8B5FFF7CFFF00289C
:1043D0002EDBC3001C481F22C01805230579C356D5
:1043E00001201A4090400326C022184952001E4066
:1043F000F6008850813AB240C024D243B440002B2A
:1044000017DA0F263340083B114E9B089B009B197F
:10441000DE6932401443DC613F231D408023DB0111
:104420001D430C4B08605D805A7852B2002AFBDBBA
:10443000F8BD064E9B089B009B19C026B6009F59ED
:104440003A4014439C51E7E770D0000000E100E0DF
:1044500000ED00E0000C0040F8B504000F0016006D
:104460001D00FFF7B1FF2000FFF7D9FE1C21BB00A4
:104470000B4071072268090C0B43136084232268E8
:104480009375012F1AD11021012E00D008390C4B41
:1044900069431868C00002F0CFFB07222168024080
:1044A0008B895203DB04DB0C13438B8122680304EA
:1044B0009089DB0C400B400318439081F8BDC04647
:1044C00084000020F7B50500019308AB1F780E00AB
:1044D0001400FFF7FBFE2800FFF776FFC02224053B
:1044E00092031440BA070C2717433C43C027072206
:1044F0003604BF022B683E4026431E60019B29689C
:1045000013401A0080239B0213434B602A68D3692F
:104510005B07FCD4F7BD3F20704713B56B460268BC
:10452000D9710733546819000122A04716BD10B590
:104530000221006900F03AFC10BD10B503210069AA
:1045400000F04AFC10BD000010B51300084A04003A
:10455000D279002A03D101230020636010BD0A0034
:104560000069032100F030FD0028F4D0F6E7C046D2
:104570000C00002010B5054C23685A1C04D10368B8
:104580005B69984703002060180010BD58000020A8
:10459000074B0200186810B5411C03D0012252429B
:1045A0001A6010BD0221106900F000FDF9E7C04655
:1045B0005800002010B503784222023303700249EC
:1045C000024800F0ADFD10BD140000206809002075
:1045D00010B50178020043780020A12908D1212BD1
:1045E00005D107221649174800F09AFD012010BD99
:1045F0002129FCD1202B13D107221149114800F0A9
:104600002FFC96220E4BD200196891420ED1012444
:10461000D87904400AD1FA2001F042FE0020E6E7F2
:10462000222B06D19278064BDA71EAE701F03EFEC2
:10463000F4E7232BDBD15288034B1A60D7E7C0463F
:104640000C000020680900200800002070470000CE
:10465000FA220021054B92009A60054A59600832FF
:104660001A60044A19761A617047C0464C09002046
:10467000A0D0000068090020704770B50F26CB1D40
:10468000013902003240D5B22C0000093034092A29
:1046900000DD07341C70013B8B42F2D170BD10B5B8
:1046A0000400806905F020FAA06A05F01DFA2000D8
:1046B00010BD10B50400FFF7F2FF200001F05EFB13
:1046C000200010BD70B5032908D1324B8000C058BE
:1046D000002802D00368DB68984770BD82291FD18B
:1046E000C3B22D4D5A01AA1891692C4C80010C407F
:1046F000C02189052143916129490833401880214F
:1047000050612A685B01D018047949422143017144
:104710007020995C81430800302101439954DCE703
:104720000029DAD1C024C1B21B4E4A01B2189368E5
:104730001A4DA4052B40234393601A4B8001C018E7
:104740000B0050603068072608335B01195CB143E9
:104750000E0001213143195491690D402C4394619D
:1047600070240F495161195CA1430C0010212143B1
:10477000195491680C4CC3180C4080214903214303
:1047800091609168890B89039160402259790A43AD
:104790005A71A2E76C090020200E0020FFFFFF8F56
:1047A00094090020540B0020FF3F00F0EFF310832A
:1047B00003600123436072B670470368002B02D187
:1047C00062B6BFF36F8F704737B50569040068465E
:1047D000002D14D1FFF7EAFF019B621D013B02D3BC
:1047E000D57FEDB2FAE768460193FFF7E6FF002DAB
:1047F00001D100203EBD206AE369C01AFAE7FFF745
:10480000D5FF22000025019B3432013B02D31578ED
:10481000EDB2FAE768460193FFF7CFFF002DE8D02D
:10482000206BE36AE9E70000FF2130B54368164DCD
:104830001A6883680B405B01D21801235218947ADE
:1048400023439372836842680B405B01D418C268AB
:10485000A36892042B4012091343A3608368426843
:104860000B405B01D3189A68920B92039A604368DD
:104870001A6883680B4008335B01D318402219790A
:104880000A431A7130BDC046FF3F00F0F7B5036917
:1048900004000E0017006846002B45D1FFF786FF85
:1048A000019B611D013B5A1C0CD0CD7F5A1EEDB2FD
:1048B000002D05D168460193FFF77FFF2800FEBD5C
:1048C0001300F0E7684601930025FFF776FFE369E0
:1048D000AF420AD0226A9A4207D95A1CE261A26901
:1048E000D3181B7873550135F1E7226A9A42E5D156
:1048F0000023E361013323616846FFF757FF22007D
:104900000021019B671D013B3532581CD2D0F9773D
:1049100010785E1E002805D0117020000193FFF76B
:1049200083FFECE73300F0E7FFF740FF2100019B36
:104930003431013B5A1C06D00D785A1EEDB2002DC1
:10494000B8D01300F6E7684601930025FFF735FF5E
:10495000E36ABD4202D0226B9A421CD8226B9A4273
:10496000ACD100236846E3622361FFF71FFF2700F5
:1049700022000021019B3437013B3532581C99D06D
:10498000397010785E1E00280DD011702000019340
:10499000FFF74AFFEBE75A1CE262A26AD3181B78C2
:1049A00073550135D4E73300E8E7F7B5FF21826896
:1049B00043680A401B68083252019A18D3790400F0
:1049C000DB072AD50125D571836842680B405B015E
:1049D000D3189A6840699204920C002821D122626F
:1049E000226A002A3ED0A26A656168465A60FFF7D3
:1049F000DDFE27002100019B661D013B3437353168
:104A00005A1C2BD0F5773A78581ED2B2002A05D01E
:104A1000019368460D70FFF7D0FEF7BD0A700300E2
:104A2000EEE72263226B002A1CD000226261A26999
:104A300068465A60FFF7BAFE26002100019B343613
:104A4000013B671D35315A1C08D03570FA7F581E5E
:104A5000D2B2002ADCD10A700300F4E76846019361
:104A6000FFF7ABFE2000FFF7DFFED6E737B56B465A
:104A7000DC1D00230D0020002370FFF79BFD2B6839
:104A80001818286001F08AFC210001F053FC2B6803
:104A90001818286020783EBD03290ED180220E4BC5
:104AA00062311B68FF31585C524202435A546822FB
:104AB0006339FF32FF39995470470129FCD18022B4
:104AC000054B24311B68FF31585C524202435A5453
:104AD00028222339FF32EDE7200E002070B5002593
:104AE000304B012104001A201D7001F01BFB012135
:104AF0001A2001F047FB2C4B012119201D7001F0F9
:104B000011FB0121192001F03DFB2023274A0F2032
:104B1000D1690B43D361012225490B7813430B70F4
:104B2000244B19788143197006211D782943197087
:104B300021490D782A430A701A7802401A706022BF
:104B400019780A431A701D4B1D4A5A805A78D209A7
:104B5000FCD11C4801F08AF81B4D280001F030FC04
:104B6000280001F045FC7F212A68C12013788000CD
:104B70000B40137004232A6811780B430C21137027
:104B80002A6813898B43114913810B581B021B0A96
:104B90000B5080230B6011787E3B0B431370012375
:104BA000237070BD8909002088090020000400409E
:104BB000584400413C44004159440041000C00402D
:104BC0000640000095550000200E002000E100E0A6
:104BD0000078002810D00121084B1B681A898A43ED
:104BE0001A810822198B0A431A830422198B0A435B
:104BF0001A830022024B1A607047C046200E002024
:104C0000180E002010B50F4A93699B0B9B0393610C
:104C100013680222FF331A729879823A02439A711A
:104C20001A7A9207FCD57F24074A2140937A08001C
:104C3000A3431900802301439172917A5B420B4395
:104C4000937210BD200E00200050004110B50B796A
:104C50000C00002B0CD10800FFF7BAFC002801D093
:104C6000012010BD094A93699B0B9B039361F7E7F1
:104C700001F094FB210001F081FB0028F0D1034AF0
:104C800093699B0B9B039361EBE7C046200E0020CA
:104C9000F8B50D00832A19D1CBB2364C5A01A218AF
:104CA00091693548AD010840C021890501439161F2
:104CB000324920686D187021083355615B011A5C18
:104CC0008A43110040220A431A54F8BD022A4CD1EB
:104CD0002B4A8B009858002802D003685B699847DC
:104CE000382001F047F8274B802703600023214E2E
:104CF0007F00421D036203614361C36146608560BA
:104D0000C760D3772F320400C36203631370380087
:104D1000537004F0DFFEA061380004F0DBFE2A00CF
:104D2000A062FF200240510171188B68124FAD0044
:104D30001F40C0239B053B438B601300316807264F
:104D400008335B015A5CB2431600032232435A54C3
:104D5000A368626803405B01D318A26920005A600F
:104D6000FFF762FD064B5C51AFE711002800FFF72B
:104D7000A9FCAAE7200E0020FFFFFF8F9409002066
:104D80006C090020CCD0000070B505000124064B52
:104D9000A200D258002A05D021002800FFF778FF92
:104DA0000134F4E770BDC0465C000020084B8A0067
:104DB000D05810B5002803D003689B68984710BDF1
:104DC000C9B2044B4901591888688004800CF6E781
:104DD0006C090020200E002010B50C00FFF7E6FF44
:104DE00000280CD0064BE4B21B68083464011C197F
:104DF000802362795B42134363710223E37110BD28
:104E0000200E002070B5CBB2124A13485C01890114
:104E10008918021951609168104D08330D408021A6
:104E200089022943402591609168890B890391602B
:104E300001685A018A1816793543157195796D06FE
:104E4000FCD55B01C918CB79DB07FCD5001980685C
:104E5000C0B270BD540B0020200E0020FF3F00F0B8
:104E600070B5140040220B4B0D001B68FF335979BD
:104E70000A435A710021FFF7C5FFA04200D9200064
:104E800000230549A34203D0CA5CEA540133F9E781
:104E900070BDC046200E0020540B002010B5C9B2D2
:104EA0000B484901421893689B049B0C3F2B0BD97C
:104EB0009468403B9B04A40B9B0CA4032343936086
:104EC00041188868C0B210BD93689B0B9B03F6E73E
:104ED000200E0020F0B51C002F4B85B01B6806008B
:104EE0000D000192002B54D02C4F3978C9B2002903
:104EF00002D1192001F046F964233B70284BAA0027
:104F0000D058002808D0036822005B6801999847B0
:104F10000400200005B0F0BD29003000FFF746FF77
:104F2000844204D929003000FFF740FF0400290023
:104F30003000FFF7B3FF0121EBB21A4F03935B017F
:104F40000293029A3B6801989B18FF335A7A0A43EE
:104F50005A72154BA901C918220004F0E1FD002C7A
:104F6000D7D029003000FFF721FF0028D1D1402100
:104F7000039B3A6808335B01D31818790143197110
:104F80000121D971029BD318FF339A7A0A439A728E
:104F9000BFE701246442BCE7180E00208809002006
:104FA0006C090020200E0020540B002013B56B4626
:104FB000DC1D22000123FFF78DFF012801D120789D
:104FC00016BD01204042FBE7F0B51E003A4B85B00C
:104FD0001B680F000192002B3FD08023DB019E4213
:104FE0003BD8364C2178C9B2002902D11A2001F0F1
:104FF000C9F8642300252370314BBA01D3180293FA
:10500000002E2CD02F4B1B680393FF233B401C002A
:1050100000930834039B64011C19A379DB0921D098
:10502000294B2A49186801F007FE294B17215843DC
:1050300001F002FE274BE279920713D4DA5D002AD1
:1050400001D10138F7D20122DA55009B5A011D4BDC
:105050009B189A69920B92039A6101256D42280070
:1050600005B0F0BD00221B4B3400DA55402E00D9AC
:10507000402422000199029804F052FD009BA104F3
:105080005A01104B890C9B18029A2D195A619A6982
:10509000361B920B92030A439A61009B039A0833D2
:1050A0005B01D3180222DA715979823A0A435A71A4
:1050B000019B1B190193A3E7180E0020890900200A
:1050C00094090020200E00208400002040420F00A0
:1050D000701101008B09002070B50D001C000D4BF4
:1050E000AE01F61811003000220004F019FDEDB2F7
:1050F00009496D014D196E61AB69084A20001340E2
:10510000AB61AB69A2049B0B920C9B031343AB6195
:1051100070BDC04694090020200E0020FF3F00F023
:10512000F7B5104B01901B780F001500002B0CD128
:105130000D4B16001C78002C09D00C4E0C483488FE
:105140002018641904F0ECFC34802800FEBD002E09
:10515000FBD03A19330000210198FFF7BDFF241856
:10516000361AF4E7140D0020150E0020160E00204C
:10517000150D0020F8B5002000AF0E001500012A23
:1051800027D9D31D6A46DB08DB00D31A9D460800E9
:1051900005F024FC6C46032302220021013040006C
:1051A00020706370AA420DD2307800280AD0531CB8
:1051B000DBB20136A0549D4203D00232E154D2B298
:1051C000F0E72A0021000448FFF7AAFF431E984198
:1051D000C0B2BD46F8BDC04668090020F0B5002445
:1051E000012685B0184B0F0069461E70050000941B
:1051F000FFF73CFC154B01A90B806A3BFF3BCB71D1
:105200006E3B0B72009B8C7109334B800E4B4E71C1
:1052100008711C703A00092F0FD00D4F09223E7003
:105220000C4E280000943480FFF77AFF694628006E
:10523000FFF71CFC328808493C702800FFF770FF1C
:10524000012005B0F0BDC046140D00200902000089
:10525000150E0020160E0020150D0020F0B5CF7899
:1052600093B005000E00022F09D1C9882B48FFF723
:10527000B5FF441EA041C4B2200013B0F0BD01F040
:105280008DF8310001F06AF8002803D0C417241A01
:10529000E40FF1E7012F0BD1F2882149112A11D82F
:1052A000D2B2002A0ED02800FFF73AFF0124E3E72C
:1052B0000400032FE0D1B378002B05D1F2881949FF
:1052C000032AEDD90A78EEE7022B06D1B279164906
:1052D0002800FFF74FFF0400CEE7012B02D1B2797F
:1052E0001249F5E7032BC7D1114B01A91868FFF745
:1052F000C4F9104B03A91868FFF7BFF90E4B05A9B5
:105300001868FFF7BAF90D4B07A91868FFF7B5F948
:105310006B460533DC77B27901A9D9E7680900202B
:105320000CD10000FCD00000E4D0000000D100004F
:105330000CA0800040A0800044A0800048A0800015
:1053400037B5050048780C000B2810D801F06AFC2E
:10535000061B0F2B0F41466E4A4D676A097801AA5A
:10536000002906D1022311802800FFF7B5FE012095
:105370003EBD002313802E4B1B78012B00D11370F0
:1053800002230021F0E78A780023012A03D101AA31
:105390001380284BF0E7264A1370274A93699B0B2A
:1053A0009B039361E3E78C78012C06D10021214B0C
:1053B00001AA1C7011702300D6E700208442D7D1C7
:1053C0001B4B01301C4A187093699B0B9B03936124
:1053D000CEE789782800FFF715FCC8E72800FFF71B
:1053E0003DFFC5E70123154ACBE70B780020DB061C
:1053F000BED12800FFF7C8FC2A200221A2780F4B5B
:10540000FF301A600C4A13681C5C21434A2419546B
:10541000FF34195D2938FF3801431955D4E70123BA
:10542000074AAEE78A78064B1A60B6E700209FE786
:105430008A09002092090020200E0020180E00206A
:105440001C0E00204B4BF7B51C780700002C00D039
:1054500083E0494E33689B8B1B070ED5210020004B
:10546000FFF730F9326810231100FF31887A0343C7
:105470008B72424B1C600823938333689A8B5207CC
:105480001FD504229A833E4A1378002B0AD0137842
:10549000013BDBB213701378002B03D101211A20DA
:1054A00000F070FE374A1378002B0AD01378013BC6
:1054B000DBB213701378002B03D10121192000F007
:1054C00061FE3368FF331A7AD2061ED510221A7293
:1054D000597930320A435A7160232B4938000A78CF
:1054E0001A423BD1FFF72CFF3368FF33002838D036
:1054F0008022997952420A439A711A7A520604D547
:1055000040221A72597A0A435A72336800241D8C59
:1055100001239D43EDB20193E1B2002D1DD02B007C
:105520002341019A134215D02300326808335B01EE
:10553000D318DA79D20702D4DB799B0707D5134B4E
:10554000A200D058002810D003681B689847019B20
:10555000A3409D430134092CDED1F7BDFFF776FB54
:10556000C2E720210A4A9171C7E73800FFF794FA91
:10557000EDE7C046150E0020200E0020180E00207A
:105580008909002088090020540B00206C090020A4
:10559000FF50004110B50248FFF754FF10BDC04650
:1055A00068090020014B024A1A607047200E002053
:1055B000005000410120704710B50368014A1B6A82
:1055C000984710BD130400000300FC33D96F9A6F95
:1055D000914203D0DB6FC018007D7047012040422C
:1055E000FBE710B504000069FEF719FE2200002356
:1055F000FC329367D3679E229200A4186366A36669
:1056000010BDF02001403039484248417047F02336
:105610001B011940802306209B0099420AD00133C8
:10562000FF330130994205D0802302385B00994254
:1056300000D0002070470F2001400020012903D036
:105640000239481E8141481C70470000B923F0B55B
:10565000182685B002919B000400C05C330008212D
:105660004343324D1700EB18595600F0B7FD304B4D
:105670000821E05C33004343EB18595600F0AEFDBF
:105680002C4BE25C0393022A09D11133E05CFF2822
:1056900005D008214643AE19715600F09FFDBA2689
:1056A000B600A05DFF2819D0012100F03BFD1822B3
:1056B000A35D21495A43AB56AD18DB015818BB21F5
:1056C000890060501D4901225B18BC21890063508C
:1056D00069688A40BD21890062501A600122029BDC
:1056E00011002069FEF7B8FE39002000FFF78FFF98
:1056F000390005002000FFF79EFF3900060020005A
:10570000FFF77FFF33000090290020690122FEF798
:1057100056FD0B4B2069E25C039BE15CFEF76CFDE0
:105720002069FEF789FD05B0F0BDC046ECCB000056
:10573000E5020000E7020000184400411444004163
:10574000E6020000AF2210B504005200002104F070
:1057500003FA23000022FC335A6620009A6610BD2B
:10576000F7B51D0008AB1B780400009309AB1B784C
:105770001600019300234360FA239B008360114BC2
:105780000F00083303601430FFF7DCFF20007D308A
:10579000FF30FFF7D7FFB9236A469B002761E65425
:1057A000094B1278E554094B2000E2546A46084B35
:1057B0001279E254BA22E93BFF3B9200A354103223
:1057C000A354FEBD20D10000E5020000E602000067
:1057D000E70200000300FC33586E9B6EC01A01D52F
:1057E0005F30FF30704710B5040020007D30FF307F
:1057F000FFF7F0FF0028F8D12069FEF727FD10BD64
:1058000010B51430FFF7E6FF10BD0300FC33596EEE
:105810009A6E914205DB5A6E986E801A5E30FF30A8
:105820007047986E5B6EC01A0138F9E710B57D308D
:10583000FF30FFF7EAFF10BD70B504000069FEF706
:1058400021FD002805D02069FEF72CFD2069FEF718
:105850001EFD2069FEF706FD002824D020692500E2
:10586000FEF720FDAF21FC350600A86F490001308E
:1058700001F068FAEB6F994203D0AB6FE3181E7525
:10588000A967BA239B00E35CFF2B0CD020001430E7
:10589000FFF7BBFF092806DCBB23BD229B0092005B
:1058A000E358A2581A602069FEF7F7FC00281DD0C3
:1058B00020007D30FF30FFF78DFF002825D09E238C
:1058C0009B00E618B26E736E9A421BD0BE22AF21C7
:1058D000B36EB06EE3185200013049009D5C01F0D8
:1058E00031FAB166E9B22069FEF7E0FC2069FEF703
:1058F000BEFC002805D02069FEF7BDFC2069FEF73C
:10590000ADFC70BD01256D42ECE72069FEF7DAFCC5
:10591000ECE70000F8B5040000690E00FEF7BDFCDE
:10592000002843D19E23AF219B00E518686E4900F3
:105930000130AF6E01F006FAB94223D1EFF31083C4
:10594000DB0710D41F4B5B68DB05DB0DEAD0103B97
:105950005BB2002B10DA0F221340083B9B081A4A57
:105960009B009B181B682069FEF797FC0028D9D084
:105970002000FFF761FFD5E79B08C033134A9B0067
:105980009B58F0E7AF21686E4900013001F0DAF969
:10599000AB6E994205D0BE226B6E5200E3189E5446
:1059A00069662069FEF78AFC0120F8BD20007D3081
:1059B000FF30FFF70FFF0028B4D131002069FEF758
:1059C00075FCF1E700ED00E01CED00E000E100E017
:1059D00070B50500FC35EA6FAB6F04009A421DD02C
:1059E000AF21EB6F4900C318E86F1E7D013001F055
:1059F000A9F9E967BA239B00E35CFF2B0CD02000D8
:105A00001430FFF702FF0A2806DDBC23BD229B00ED
:105A10009200E358A2581A60300070BD0126764209
:105A2000E8E70000F7B500921822162542434F4BD5
:105A300007009B185D5701916B1C4ED04C4B4D4C91
:105A40001E68002E27D1310044224B4804F084F810
:105A500031004422494804F07FF81022484B49495C
:105A60001E60CA67C021C120474B49005A508000C0
:105A70001958FF36B14319501A60444B444A5A80B2
:105A800002232278134323706378DB09012BFBD0B8
:105A90000122374B1A6001231E00AE406269324377
:105AA0006261019A002A18D0102D1FD1E2781343A9
:105AB000E370009B042B0BD818000723A2789A43AD
:105AC00001F0B0F8030C0E10120005231343A3706D
:105AD0002A4B019A1A64B6B2E660F7BD0423F5E7D3
:105AE0000323F3E70223F1E70123EFE73800002760
:105AF000002100F073FB224B1F499C461B68BA0033
:105B0000BB421DD16046013303608E501B4B01998F
:105B10009950072D19DD0123083DAD000721A9404B
:105B2000144A9B009B189A698A439A61009A042A36
:105B3000D1D81000996901F075F80B1012141600F5
:105B40008858B042E1D00137D9E7AD000023E5E73E
:105B50000522AA400A439A61BDE70422F9E703221D
:105B6000F7E70222F5E70122F3E7C046ECCB00009D
:105B7000AC0F002000180040680F0020240F002008
:105B8000B00F002004E100E000E100E0000C004064
:105B900005400000F8B50024094B1B68A34200D85B
:105BA000F8BD084E084FA5003369EA591A4204D0DF
:105BB000064BEB589847EB5933610134ECE7C0468C
:105BC000B00F002000180040680F0020240F0020B4
:105BD000054B10B51B6C002B00D098470123034ADE
:105BE000D1780B43D37010BD240F00200018004063
:105BF000FEE70000034B10B51B68002B00D0984750
:105C000010BDC046B40F002070B50F490F4CA14223
:105C100004D100F0B7F800F08BF8FEE70C4D00233C
:105C20008D42F6D0CA18E818A24205D3094B824229
:105C3000EFD00949002204E0006804331060F1E766
:105C400004C38B42FCD3E4E7000000208002002064
:105C500098D60000800200201C12002010B500F031
:105C600064F8002801D100F055F810BD014B186010
:105C70007047C046B40F0020014B18687047C046FB
:105C8000B80F0020F7B51348012284461249134C7F
:105C90008E68636805689B0E13400192886862688D
:105CA000019F920E3A4067463F6893420ED1BD4233
:105CB0000CD186420AD35B19FA254868AD00861BD1
:105CC00007486B437043000DC018FEBD3D00130034
:105CD0000600E3E7B80F002010E000E000ED00E070
:105CE0005555000070B5041E10D0FFF7CBFF05001E
:105CF00000F01AF8FFF7C6FF054B401B9842F7D992
:105D0000FA23013C9B00ED18002CF3D170BDC04676
:105D1000E703000010B5034A13680133136000F075
:105D2000CDFA10BDB80F00207047002070477047B3
:105D300010B500F0D7F803F09FFEFFF7F8FF012041
:105D4000FFF7D0FF094C2000FEF7C8FE2000FEF749
:105D50003FFFFCF75BFAFCF743FBFFF7E5FF044B63
:105D6000002BF8D000E000BFF5E7C046680900202E
:105D70000000000010B503F0ADFE10BD10B503F03B
:105D8000B3FE10BD1E2270B5464847494368934391
:105D90001C3A1343436008238C6923438B61434CB3
:105DA000434B9C829C8A14439C82DC681442FCD046
:105DB0000124404A14701578254203D055786DB2FD
:105DC000002DF8DB01249460547864B2002CFBDBD6
:105DD000394C5460547864B2002CFBDB8224E4011B
:105DE0005480547864B2002CFBDB02249C840E3473
:105DF000DD682542FCD0314CDC621024DD68254290
:105E0000FCD09D8C2E4C2C439C841024DD682542B4
:105E1000FCD002249D8C80262C439C844024DD6889
:105E20003542FCD0DD682542F9D01024DD682542DA
:105E3000FCD000249460547864B2002CFBDB214C2D
:105E40005460547864B2002CFBDB1C6A1E4D2C405D
:105E500080251C621C6AAC431C62032393601B4BAD
:105E6000536053785BB2002BFBDB0023FF240B72E3
:105E7000174A4B728B72CB72164B1A60164B174A2D
:105E80001B6811689A065B01C90E2340520F12026B
:105E90000B431343124A1385802342681343436024
:105EA00070BDC04600400041000400400C060000E8
:105EB00000080040000C004001050100B905FF7D0D
:105EC000040A000000070300FFFCFFFF03060100B7
:105ED000006CDC02840000202460800020608000D0
:105EE00000400042FA212D4B10B51868890000F0DF
:105EF000A3FE2B4B013898424FD82A492A4A4860C2
:105F0000C020136A00061B021B0A0343136200230E
:105F10008B6007330B608021136A09061B021B0A82
:105F20000B431362FC22214B196A0A431A62FF22B7
:105F3000196A12020A431A62A022196AD2020A439B
:105F40001A621B4B1C005A7852B2002AFBDB194A1A
:105F50005A80194B1A00597EC9090129FBD0C82162
:105F6000890099800521D970537EDB09012BFBD074
:105F7000C02300205B011361907000F023F8637868
:105F80005BB2002BFBDB0D4B0D4A6380D379DB0941
:105F9000012BFBD04123537010BDFEE7840000208D
:105FA000FFFFFF0010E000E000ED00E00004004013
:105FB000000C00401E400000004000422140000054
:105FC000004800421F4900B50B004A7ED209012A51
:105FD000FBD001380A282FD800F024FE1B2E2E2ECD
:105FE0002E2E062E2E2411001A6917490A400F2161
:105FF0001A615A788A43110001220A4310E01A6993
:1060000011490A400F211A615A788A43110003226C
:10601000F3E71A690C490A400F211A615A788A433A
:106020005A7000BD1A6908490A400F211A615A784E
:106030008A4311000222E0E7F022196912050A439F
:10604000F3E7C04600400042FFFFFFF010B5040038
:106050000D2800D80E340121200000F0BFF80E2CCE
:106060000DD12B4B1900DA79D209012AFBD002207D
:106070001A7882431A70CB79DB09012BFBD02549B2
:106080000B004A7ED209012AFBD018226243224C1F
:10609000A418207C1F240A692040A24302430A61FD
:1060A0005A7ED209012AFBD0022219780A431A70BB
:1060B0005A7ED209012AFBD00222197B0A431A73A5
:1060C00001221A765A7ED209012AFBD00222197BBC
:1060D0000A431A731A7ED207FCD5588B80B25A7EB7
:1060E000D209012AFBD002211A788A431A705A7EFB
:1060F000D209012AFBD0094B1A68094B1B689A4246
:1061000002D002D9D31AD84010BD9B1A9840FBE7A1
:106110000048004200400042ECCB00008800002014
:106120008C000020182310B508244343134AD018CC
:106130000457013412D001249A5643689C40032925
:106140000CD808000E49D2015218D318403300F081
:1061500069FD0210060B02211970546010BD062162
:10616000197054609461F9E7062119705460546104
:10617000F4E7022119709460F0E7C046ECCB000010
:10618000004400411823F0B508245843114A13185D
:106190001C5701341BD0012635005F688356BD4073
:1061A0000D4ADB019A18906805420BD10C00601E65
:1061B0008441D2194032107834400336A400B043F1
:1061C00020431070044A9B18002901D15D61F0BD85
:1061D0009D61FCE7ECCB00000044004118224243E3
:1061E00070B52D4E0300B218127A52B2140001326B
:1061F0000ED0481C00240C280AD800F013FD071FFD
:106200001F1F1F1F1F1F1F0B0B0B0B0001246442BE
:10621000200070BD092905D100211800FFF782FF79
:106220000024F5E70A2901D10839F6E700240B29F3
:10623000EED10A391800FFF775FFE9E718220120AF
:106240005343F218F3565568144ADB016C089B1847
:10625000C9B228401C1900280ED00F2030342278F3
:106260000901024011434122C9B25B192170403338
:1062700019780A431A70D3E722000F2630321478B7
:106280005B19B44321431170412240331978040053
:106290000A431A70BCE7C046ECCB00000044004142
:1062A000014B18607047C046900000200122024B4D
:1062B00052421A607047C04690000020164A10B53E
:1062C0001368591C26D0013B1360002B22D172B6F3
:1062D000124B134A0433934213D9124A012110007E
:1062E000147D0C42FCD02021148BFF319B085B00F5
:1062F00021431183D3610C4B13800123027D1A4289
:10630000FCD0BFF34F8F094B094ADA60BFF34F8FC0
:10631000C046FDE710BDC0469000002000200000F0
:10632000030200000040004102A5FFFF00ED00E075
:106330000400FA0570B50E0000254468002C0BD04F
:10634000236831005B6820009847002802DB2D1885
:10635000E468F3E701256D42280070BD70B50D00BB
:106360004468002C08D0236829009B6820009847C7
:10637000002802D1E468F4E7200070BD70B50D007C
:106380004468002C08D0236829001B682000984727
:10639000002802D1E468F4E7200070BD0121054A1D
:1063A00010B5136804480B4003D1044C43600480CB
:1063B000116010BDBC0F0020C00F002002040000BF
:1063C00070B50400012304CC0500117820000B43B4
:1063D000137080220021520003F0BEFB2B689A78D4
:1063E000D207FCD49A789207F9D45C6270BD0000A1
:1063F0001F22144BF0B51B68590B9C0C9B011140DC
:1064000014405B0F914200D105211F2C00D1023CAA
:10641000072B00D1043B02688F01158D0A491F2606
:1064200029403943118505683440298D0A00B2435B
:1064300022432A8500681903028D044B13400B4345
:106440000385F0BD246080003FF8FFFFFF8FFFFF52
:106450000378034A9B009B58002249331A70704707
:106460001C100020F0B5040085B01E000AAB1B789C
:10647000103001930BAB1B78170002930CAB1B7809
:106480000D00039300F0ACF92000243000F0A8F9CF
:10649000220000234832A363E36323646364137020
:1064A000537063729D4205D10A4B0B4A22210B485F
:1064B00003F0B4FA6B461B79200063716B461B7ABC
:1064C0002560E3716B461B7B2771A671237205B0B3
:1064D000F0BDC0469CD1000004D20000ADD1000048
:1064E00030B5040085B002AD006802910392FDF75B
:1064F00004FF6B79227AE179009320680023FDF78D
:10650000E1FF2979029A2068FDF71CFF2068FDF75A
:10651000EAFE05B030BD000007B5837A0091019214
:10652000002B07D09A070AD5EFF310835A42534144
:10653000C37272B60099019AFFF7D2FF07BDDB075D
:10654000F8D5C368014A9BB29360F3E70018004096
:10655000837A002B05D09A0704D5C37A002B00D08C
:1065600062B67047DB07FCD5C368024A9BB2D360B2
:10657000F7E7C0460018004010B50068FDF7C6FEFA
:1065800010BD000010B50068FDF7F0FE0023984232
:1065900003DB0C335843024BC358180010BDC046F0
:1065A00054D1000010B50068FDF7E0FE002805DBBF
:1065B0000C2343430348C018406810BD01204042EB
:1065C000FBE7C04654D1000010B50068FDF7CEFED1
:1065D000002805DB0C2343430348C018806810BD26
:1065E00001204042FBE7C04654D10000F0B5060050
:1065F000103689B00500300000F04AF9002869D152
:106600002F002437380000F043F9041E5FD1280022
:10661000FFF7DAFFC1B2300000F018FA02213000B3
:1066200000F038FA2C490122300000F00BFA2B7CE4
:106630002A4A9B0028009D50FFF7B4FFC1B23800E2
:1066400000F004FA0221380000F024FA6B1DDB7F11
:10665000224A9B0028009D50FFF794FF0123010070
:1066600022000293049423000394019400943000C8
:1066700000F034FAA8632800FFF784FF012302002A
:1066800001932100230004940394029400943800A1
:1066900000F024FAE863402003F01CFA2A00483294
:1066A0002864079200280BD00123137068646B6C78
:1066B00010221819E96B103403F032FA402CF6D18D
:1066C000079B1B78002B05D1380000F07BF93000C8
:1066D00000F078F909B0F0BD516400001C100020F2
:1066E00070B5437A0400002B04D18372C372C36077
:1066F00001334372230048331B78002B02D1200062
:10670000FFF774FF18263300082120790D4D43430D
:10671000EB185956FFF762FD33000821A079434377
:10672000EB185956FFF75AFD082160794643AD1919
:106730006956FFF753FD044B200006CBFFF7D0FE50
:1067400070BDC046ECCB0000141000201FB5094AF4
:10675000094B0A49136000235371137102930133EB
:10676000019316330093162201330548FFF77AFE92
:1067700005B000BD1410002000093D0044090020B0
:10678000C80F0020094B1868002809D1EFF31082C8
:106790000749002A08D172B6BFF35F8F01320A7031
:1067A0001A6801321A6070470870F9E7D8110020A2
:1067B000D4110020084B1A68002A0CD01A68013A3C
:1067C0001A601B68002B06D1044B1B78002B02D0EB
:1067D000BFF35F8F62B67047D8110020D41100203C
:1067E000FF23002110B504000370FC3B4170817051
:1067F000C170017143710C22083003F0ADF9200023
:1068000010BD000001220B0010B5134008D00D4B45
:106810001A70042343708368002B00D0984710BD82
:106820000222114204D007490A704370C368F3E79B
:1068300004231942F3D0034A1370033343700369EE
:10684000EAE7C0464E48004110B5FFF79BFF0C4BEE
:106850001B8C1B071B0F0B2B0FD80A4A990088585B
:1068600000280AD00F2408490A78A24313430B706A
:10687000064B1978C9B2FFF7C5FFFFF79BFF10BDA4
:1068800000480041DC1100203F4800414E480041D3
:10689000F8B500230278050018000B2A77D93C4E82
:1068A0002B702B780B2B07D801229A4031681142AC
:1068B00004D001332B70F4E7012068E0FFF762FF9A
:1068C0003768344C002F2BD12022334B3348596981
:1068D0000A435A611022D9690A43DA6102222388E5
:1068E0003900934323802388013A134323802C4BA0
:1068F0006063BF32A36303F02FF9C0223900284838
:1069000003F02AF94022C120264B80002380264B29
:1069100026491A601A581140C02212040A431A501C
:1069200001231A00297830688A40024332600F261A
:106930001F4A880085501F4831400278B2430A43FD
:10694000027002201C4A117881431170117819439A
:106950001170297822698B409A43226160223F217D
:10696000636C934363642A79636C0A40134912028F
:106970000B400321134363646A79636C0A40104936
:1069800092050B4013436364FFF714FF0020F8BD2A
:10699000D0110020004800410004004010110020E8
:1069A00050100020020F000000E100E0FFFF00FF98
:1069B000DC1100203F48004140480041FFC0FFFF7C
:1069C000FFFF3FFF70B50500FFF7DCFE6B785BB2A1
:1069D0001C00062B27D02B7802240B2B23D8012256
:1069E0009A40134B196811421DD0196891431960E0
:1069F0001B68002B10D1402221000E4B0E31DA67AC
:106A00000D4A1388A34313800C4BDA698A43DA6179
:106A10005A6910318A435A6100242B78084A9B0036
:106A20009C50FF232B70FFF7C5FE200070BDC046B1
:106A3000D011002004E100E00048004100040040C3
:106A4000DC110020023292001150704770B5050031
:106A5000297103780C000B2B14D8FFF793FE2978CB
:106A60000F25094829400378084AAB430B433F21CF
:106A70000370536C0C40064924020B401C435464C1
:106A8000FFF798FE70BDC0463F48004100480041F6
:106A9000FFC0FFFF70B50500697103780C000B2B78
:106AA00014D8FFF76FFE29780F250948294003788D
:106AB000084AAB430B4303210370536C0C40064957
:106AC000A4050B401C435464FFF774FE70BDC04620
:106AD0003F48004100480041FFFF3FFFF0B587B04D
:106AE00001930CAB1E780DAB1B78050002930EAB27
:106AF0001B780078039310AB049105921F780B2844
:106B000002D9002007B0F0BD6B78062BF9D0AB7826
:106B1000002B00D178E01021080002F0D1FF0028FE
:106B2000EFD02B783A4A1B019B181A00D168002934
:106B300004D0D1688B4201D0D268F7E7D06001233E
:106B40000221AB709E4203D04918022E00D01900DA
:106B5000062402881A4302800288A2430280028827
:106B60001234A2430280153C02882640294C36028A
:106B7000224016430680029E0288274C1E40224077
:106B8000B60216430680039E0288244C1E40224013
:106B9000F602164306800288214E3B4032401B031A
:106BA0001343072203800F9B1A4003885203DB0420
:106BB000DB0C134303806B469B884380049B43603C
:106BC000029B002B08D0019B42684B43002F01D051
:106BD0000F9CA340D3184360059B8360039B002B4D
:106BE00008D0019C4C438168002F01D10F9B9C4031
:106BF0000C1984600023EA789A4203D02B78044A67
:106C00001B019B18C3607DE7014B0001C01896E78C
:106C100010110020FFFCFFFFFFFBFFFFFFF7FFFF4E
:106C2000FFEFFFFF02B4714649084900095C4900C3
:106C30008E4402BC7047C046002243088B4274D386
:106C400003098B425FD3030A8B4244D3030B8B426D
:106C500028D3030C8B420DD3FF22090212BA030C76
:106C60008B4202D31212090265D0030B8B4219D357
:106C700000E0090AC30B8B4201D3CB03C01A524177
:106C8000830B8B4201D38B03C01A5241430B8B42BF
:106C900001D34B03C01A5241030B8B4201D30B03A8
:106CA000C01A5241C30A8B4201D3CB02C01A5241CF
:106CB000830A8B4201D38B02C01A5241430A8B4292
:106CC00001D34B02C01A5241030A8B4201D30B027B
:106CD000C01A5241CDD2C3098B4201D3CB01C01A95
:106CE000524183098B4201D38B01C01A524143099F
:106CF0008B4201D34B01C01A524103098B4201D38D
:106D00000B01C01A5241C3088B4201D3CB00C01AF9
:106D1000524183088B4201D38B00C01A5241430871
:106D20008B4201D34B00C01A5241411A00D2014696
:106D3000524110467047FFE701B5002000F0F0F81F
:106D400002BDC0460029F7D076E7704703460B43E3
:106D50007FD4002243088B4274D303098B425FD354
:106D6000030A8B4244D3030B8B4228D3030C8B4280
:106D70000DD3FF22090212BA030C8B4202D3121266
:106D8000090265D0030B8B4219D300E0090AC30B3B
:106D90008B4201D3CB03C01A5241830B8B4201D3E8
:106DA0008B03C01A5241430B8B4201D34B03C01AD1
:106DB0005241030B8B4201D30B03C01A5241C30A49
:106DC0008B4201D3CB02C01A5241830A8B4201D3BA
:106DD0008B02C01A5241430A8B4201D34B02C01AA4
:106DE0005241030A8B4201D30B02C01A5241CDD249
:106DF000C3098B4201D3CB01C01A524183098B4294
:106E000001D38B01C01A524143098B4201D34B017C
:106E1000C01A524103098B4201D30B01C01A5241DF
:106E2000C3088B4201D3CB00C01A524183088B4266
:106E300001D38B00C01A524143088B4201D34B004F
:106E4000C01A5241411A00D20146524110467047C1
:106E50005DE0CA0F00D04942031000D340425340C6
:106E600000229C4603098B422DD3030A8B4212D386
:106E7000FC22890112BA030A8B420CD389019211B8
:106E80008B4208D3890192118B4204D389013AD0F5
:106E9000921100E08909C3098B4201D3CB01C01ACA
:106EA000524183098B4201D38B01C01A52414309DD
:106EB0008B4201D34B01C01A524103098B4201D3CB
:106EC0000B01C01A5241C3088B4201D3CB00C01A38
:106ED000524183088B4201D38B00C01A5241D9D250
:106EE00043088B4201D34B00C01A5241411A00D2D1
:106EF0000146634652415B10104601D34042002BCD
:106F000000D54942704763465B1000D3404201B54B
:106F1000002000F005F802BD0029F8D016E7704700
:106F20007047C0468446101C62468C46191C634656
:106F300000E0C0461FB501F073FE002801D4002117
:106F4000C8421FBD10B501F0CBFD4042013010BD5D
:106F500010B501F065FE002801DB002010BD012006
:106F600010BDC04610B501F05BFE002801DD002019
:106F700010BD012010BDC04610B501F0EDFD002888
:106F800001DC002010BD012010BDC04610B501F08D
:106F9000E3FD002801DA002010BD012010BDC0462D
:106FA0008446081C6146FFE71FB500F08BFB0028F4
:106FB00001D40021C8421FBD10B500F00DFB4042B6
:106FC000013010BD10B500F07DFB002801DB002072
:106FD00010BD012010BDC04610B500F073FB0028A5
:106FE00001DD002010BD012010BDC04610B500F02D
:106FF0001BFB002801DC002010BD012010BDC04695
:1070000010B500F011FB002801DA002010BD0120AE
:1070100010BDC0469E2110B5C905041CFFF7F0FF46
:10702000002803D1201C00F093FE10BD9E21201CDF
:10703000C90500F0C9FC00F08BFE80231B069C46AE
:107040006044F2E770B500220C4B04000D00FFF71E
:107050009DFF002804D12000290002F01FFC70BD14
:10706000064B00222000290002F0B4F802F016FCC2
:1070700080231B069C466044F1E7C0460000E041C7
:10708000F8B54746CE4643025B0A4400C20F9C4611
:107090004800DD004B02240E5B0A000E80B59846C6
:1070A00026009146C90FDB00271A8A4229D0002FFB
:1070B00015DD00284AD1002B00D095E0ED08FF2C0B
:1070C00000D188E06B025B0AE6B25B02F605580A63
:1070D0003043D20710430CBC90469946F8BD002FB0
:1070E00000D087E0601CC0B2012800DCB6E0EE1AD8
:1070F000720100D5C5E0002E3DD1002200260023FC
:10710000E3E7002F00DC96E000285DD0FF2C60D084
:107110008022D20413431B2F00DDECE02022D21B7F
:1071200018009340F8405A1E93410343ED186B0139
:107130007BD50134FF2C00D1B7E0012207262A407D
:107140006B089A4D1D4015432E4029E0FF2CB5D009
:107150008022D20413431B2F00DDB2E02022D21B79
:1071600019009340F9405A1E93410B43ED1A6B01ED
:107170005BD5AD01AE09300002F032FC0538864027
:10718000844265DC041B330020200134E340041BEF
:10719000A640751EAE41334307261D0000241E4045
:1071A00001224B461A40002E04D00F232B40042B03
:1071B00000D004356B0100D480E70134E6B2FF2C27
:1071C0002FD1FF26002380E7002B52D1FF2C00D0C7
:1071D00074E70A00ED08002DF3D08023DB032B4376
:1071E0005B025B0AFF2670E7013F002FBED0FF2C39
:1071F000B1D163E7002C47D0FF2869D08024E40494
:107200007A4225431B2A00DDC5E02C002026D4400D
:10721000B21A95406A1E954125435D1B04008946BC
:10722000A5E7AB015B0A50E7002401224B461A4058
:107230006B07BAD142E7002F3BD10134E0B20128FD
:107240004ADDFF2CBDD00726ED186D082E40A7E7BC
:107250000723574D241A35401E40A1E7002C1BD1AF
:10726000002D6ED1002B00D19AE00A001D003C00D9
:1072700024E7013F002F00D158E7FF2C00D04AE758
:10728000A7E75E1B894676E7002D1CD10A00FF2880
:107290001FD004001D0011E7002D5DD1002B17D178
:1072A00080230022DB03FF260FE70A00FF260023CE
:1072B0000BE7002C21D1002D66D1FF28E9D11D005C
:1072C00087E7012352E77A1CA7D0FA43FF2899D118
:1072D0000A001D00FF24F1E6002E21D1002D4FD021
:1072E000002B4CD0ED186B019ED5314B07362E404C
:1072F00001241D4054E7012318E7FF28DFD0802434
:10730000E4047F4225431B2F4DDC2026F61B2C0076
:10731000B540FC406A1E95412543ED18040006E780
:10732000002DCCD0002B00D153E780216046C9034B
:10733000084203D04046084200D11D0001211140FF
:1073400047E7002B00D1B9E6EA1A500125D50726F8
:107350005D1B2E40894623E7FF24002B00D1ADE6BC
:1073600080226046D203104204D04046104201D130
:107370001D00894601224B46FF241A409EE62B0041
:10738000DD080A0000249DE67A1CC6D0FF43FF28D2
:10739000B9D11D001DE701253FE7151E00D044E7C8
:1073A0000022002391E60125B7E7C046FFFFFF7DDD
:1073B000FFFFFFFBF8B557464E464546DE46440202
:1073C000E0B546008846640A360EC70F002E63D02B
:1073D000FF2E24D08023E400DB041C4300239946C5
:1073E0009B467F3E434642465D02D20F5B006D0ADC
:1073F0001B0E9046924665D0FF2B55D0802200216F
:10740000ED00D2047F3B1543F61A43464A467B40C3
:107410000F2A00D98DE06D48920082589746002CC3
:1074200054D108239946063BFF269B46DAE7002500
:10743000534602291BD0032900D1BFE0012928D0DF
:1074400030007F30002820DD6A0704D00F222A4058
:10745000042A00D004352A0103D530005C4A80306C
:107460001540FE2803DCAC01640AC2B201E0FF2231
:1074700000246402D205600ADB07104318433CBCB9
:1074800090469946A246AB46F8BD0122101A1B2829
:107490007CDD00220024ECE7002C1DD1042399465A
:1074A000033B00269B469DE7FF3E002D20D1022195
:1074B00043464A467B400A430F2AD8D845489200A3
:1074C00082589746002D19D10121F1E70C239946E6
:1074D000093BFF269B4685E7200002F081FA7626CD
:1074E000431F9C4000237642361A99469B4679E713
:1074F0004A4603231A439146032186E7280002F0F7
:107500006FFA431F36189D40763600217DE78024B0
:107510000023E403FF22ACE700258023DB031C42A9
:1075200028D01D4226D12B435C02640A4346FF2229
:107530009FE762016C01A24224D21B210025013E7B
:10754000012710006D005200002801DB944201D891
:10755000121B3D4301390029F3D11400621E9441EE
:1075600025436DE7BA46594625005346022900D007
:1075700061E77CE78023DB031C436402640A3B0071
:10758000FF2276E7121B1A210125D9E79E362A0031
:10759000B5402C00C240651EAC411443620704D0C4
:1075A0000F222240042A00D00434620103D4A40133
:1075B000640A00225DE7012200245AE78024E403E4
:1075C0002C436402640AFF2253E7C04658D20000ED
:1075D000FFFFFFF798D2000070B542004E024C004A
:1075E00045026D0A120EC30F760A240EC90FFF2A38
:1075F0000FD0FF2C11D00120A24200D070BDB542A7
:10760000FCD18B420DD0002AF8D12800451EA8419C
:10761000F4E70120002DF1D1EBE70120002EEDD1A0
:10762000E9E70020EAE7C04670B54A004E0245028D
:1076300044006D0A240EC30F760A120EC90FFF2CE8
:1076400015D0FF2A0ED0002C15D1002A01D1002E12
:107650001CD0002D14D08B4227D00220013B1840B3
:10766000013870BD002EEED002204042F9E7002D17
:10767000FAD1FF2A0ED0002A0ED1002EEDD00BE059
:1076800001230139994308000130EAE70020002D69
:10769000E7D0E2E7002EE7D18B42DED1944205DD50
:1076A0000221581E08400138DBE70024A24204DC16
:1076B000B542D2D80020B542D3D2581E01239843F8
:1076C0000130CEE730B5420044024D02C30F4800FE
:1076D000640A120E6D0A000EC90FFF2A12D0FF288D
:1076E0000CD0002A12D1002819D1002D17D1002C5E
:1076F0002BD00220013B1840013826E0002DF0D0AD
:10770000022022E0002CFBD1FF281FD000281FD12F
:10771000002D1DD10220013B1840013815E0002C3E
:107720000ED08B42E5D10022904204DCAC42E0D87E
:107730000020AC4209D2581E01239843013004E0D6
:107740000123013999430800013030BD002DD7D104
:107750008B42CED18242E7DD0221581E084001381B
:10776000F3E7C046F0B54E4657464546DE46E0B51F
:1077700043025B0A450083B00F1C99462D0EC60FCD
:10778000002D57D0FF2D24D08020DB00C0041843EB
:10779000002381469A469B467F3D7C027A00FB0F80
:1077A000640A120E984623D0FF2A4BD0E3008024AF
:1077B0000020E4047F3A1C43AD186B1C474601933C
:1077C000534677403A000F2B48D87D499B00CB5851
:1077D0009F46002B00D085E008339A46063B9B4627
:1077E0007C027A00FB0FFF25640A120E9846DBD15B
:1077F000002C00D090E0524601231A43924601200B
:10780000DBE74C4658461700022824D0032800D155
:10781000CFE00022002301284DD15802D205400AB2
:10782000FF071043384303B03CBC90469946A2463C
:10783000AB46F0BD002B5BD104239A46033B0025E9
:107840009B46AAE7FF35002C60D1524602231A431B
:1078500092460220B1E7FF220023DEE74B461B0CD5
:107860009C464B462604360C180461463300220C15
:107870006446000C43434E435043544380191A0C52
:107880001218964203D9802149028C4664441B0495
:107890001B0C1004C01883015E1EB341800E1843F8
:1078A000130C1B199B0103431C00230179D50123F1
:1078B00062081C401443019A7F32002A4DDD6307A1
:1078C00004D00F232340042B00D00434230103D51C
:1078D0003C4B019A1C408032FE2ABCDCA3015B0AAF
:1078E000D2B29AE70C239A46093BFF259B4654E700
:1078F000180002F075F84A46431F76259A40002387
:107900006D4291462D1A9A469B4646E752460323FE
:107910001A439246032050E7200002F061F8431F0B
:107920002D1A9C40763D002047E780230027DB038B
:10793000FF2272E7424666E74C463200584662E74D
:1079400080234A46DB031A4222D01C4220D1234323
:107950005B025B0A4746FF225FE701239A1A1B2A54
:1079600021DC23000199D3409E318C401A00230072
:107970005C1EA34113435A0704D00F221A40042A65
:1079800000D004335A0111D49B015B0A002244E762
:1079900080234A46DB0313435B025B0A3700FF2266
:1079A0003BE7019587E70022002336E70122002309
:1079B00033E78023DB0323435B025B0AFF222CE7D0
:1079C000D8D20000FFFFFFF7F8B54746CE46440087
:1079D000C20F80B547024802400A84466646480006
:1079E0007F0A240EF60025009046FB00000EC90F0A
:1079F000B146FF2800D185E001267140261A914248
:107A000057D0002E43DD002800D07FE049460029F2
:107A100000D1AAE0013E002E00D0F7E05B1A5A0127
:107A200000D48BE09B019C09200001F0D9FF0538B0
:107A30008440854200DDD3E0451B23002020013532
:107A4000EB40451BAC40621E9441234307240025B4
:107A50001C40012241460A40002C04D00F2119404D
:107A6000042900D00433590100D480E00135ECB280
:107A7000FF2D00D0A3E0FF2400235B02E405580A99
:107A8000D207204310430CBC90469946F8BD002E07
:107A900074D1601CC0B2012800DCA7E04A469C1AE1
:107AA000620100D5B6E0002CBED1002200240023E4
:107AB000E3E7002E00DC85E0002846D0FF2C49D00B
:107AC00080224846D2041043814601221B2E09DC45
:107AD00020204C46801B84404A462000F240441E31
